{
  "address": "0xe7f1725E7734CE288F8367e1Bb143E90bb3F0512",
  "abi": [
    {
      "inputs": [
        {
          "internalType": "address",
          "name": "s_priceFeedAddress",
          "type": "address"
        }
      ],
      "stateMutability": "nonpayable",
      "type": "constructor"
    },
    {
      "inputs": [],
      "name": "FundMe__NotOwner",
      "type": "error"
    },
    {
      "stateMutability": "payable",
      "type": "fallback"
    },
    {
      "inputs": [],
      "name": "MINIMUM_USD",
      "outputs": [
        {
          "internalType": "uint256",
          "name": "",
          "type": "uint256"
        }
      ],
      "stateMutability": "view",
      "type": "function"
    },
    {
      "inputs": [],
      "name": "cheaperWithdraw",
      "outputs": [],
      "stateMutability": "payable",
      "type": "function"
    },
    {
      "inputs": [],
      "name": "fund",
      "outputs": [],
      "stateMutability": "payable",
      "type": "function"
    },
    {
      "inputs": [
        {
          "internalType": "address",
          "name": "funder",
          "type": "address"
        }
      ],
      "name": "getAdressToAmountFunded",
      "outputs": [
        {
          "internalType": "uint256",
          "name": "",
          "type": "uint256"
        }
      ],
      "stateMutability": "view",
      "type": "function"
    },
    {
      "inputs": [
        {
          "internalType": "uint256",
          "name": "id",
          "type": "uint256"
        }
      ],
      "name": "getFunders",
      "outputs": [
        {
          "internalType": "address",
          "name": "",
          "type": "address"
        }
      ],
      "stateMutability": "view",
      "type": "function"
    },
    {
      "inputs": [],
      "name": "getOwner",
      "outputs": [
        {
          "internalType": "address",
          "name": "",
          "type": "address"
        }
      ],
      "stateMutability": "view",
      "type": "function"
    },
    {
      "inputs": [],
      "name": "getPriceFeed",
      "outputs": [
        {
          "internalType": "contract AggregatorV3Interface",
          "name": "",
          "type": "address"
        }
      ],
      "stateMutability": "view",
      "type": "function"
    },
    {
      "inputs": [],
      "name": "getVersion",
      "outputs": [
        {
          "internalType": "uint256",
          "name": "",
          "type": "uint256"
        }
      ],
      "stateMutability": "view",
      "type": "function"
    },
    {
      "inputs": [],
      "name": "s_priceFeed",
      "outputs": [
        {
          "internalType": "contract AggregatorV3Interface",
          "name": "",
          "type": "address"
        }
      ],
      "stateMutability": "view",
      "type": "function"
    },
    {
      "inputs": [],
      "name": "withdraw",
      "outputs": [],
      "stateMutability": "nonpayable",
      "type": "function"
    },
    {
      "stateMutability": "payable",
      "type": "receive"
    }
  ],
  "transactionHash": "0x9faadc7ede4a0f64db889c2911af682a5af0b10ff81405d287debc9226e1f273",
  "args": [
    "0x5FbDB2315678afecb367f032d93F642f64180aa3"
  ],
  "numDeployments": 1,
  "solcInputHash": "0930a6a059775fd623e8de245dbf455a",
  "bytecode": "0x60806040523480156200001157600080fd5b5060405162001434380380620014348339818101604052810190620000379190620000d6565b33600360006101000a81548173ffffffffffffffffffffffffffffffffffffffff021916908373ffffffffffffffffffffffffffffffffffffffff160217905550806000806101000a81548173ffffffffffffffffffffffffffffffffffffffff021916908373ffffffffffffffffffffffffffffffffffffffff160217905550506200015b565b600081519050620000d08162000141565b92915050565b600060208284031215620000ef57620000ee6200013c565b5b6000620000ff84828501620000bf565b91505092915050565b600062000115826200011c565b9050919050565b600073ffffffffffffffffffffffffffffffffffffffff82169050919050565b600080fd5b6200014c8162000108565b81146200015857600080fd5b50565b6112c9806200016b6000396000f3fe6080604052600436106100955760003560e01c8063893d20e811610059578063893d20e8146101835780639a59cd9e146101ae5780639e87a5cd146101eb578063b60d428814610216578063be2693f014610220576100a4565b80630d8e6e2c146100ae5780630ec3b027146100d95780633a7b6c74146101045780633ccfd60b146101415780636b69a59214610158576100a4565b366100a4576100a261022a565b005b6100ac61022a565b005b3480156100ba57600080fd5b506100c3610363565b6040516100d09190610e17565b60405180910390f35b3480156100e557600080fd5b506100ee610409565b6040516100fb9190610dbc565b60405180910390f35b34801561011057600080fd5b5061012b60048036038101906101269190610c21565b61042d565b6040516101389190610da1565b60405180910390f35b34801561014d57600080fd5b50610156610475565b005b34801561016457600080fd5b5061016d6106b8565b60405161017a9190610e17565b60405180910390f35b34801561018f57600080fd5b506101986106c5565b6040516101a59190610da1565b60405180910390f35b3480156101ba57600080fd5b506101d560048036038101906101d09190610bf4565b6106ef565b6040516101e29190610e17565b60405180910390f35b3480156101f757600080fd5b50610200610738565b60405161020d9190610dbc565b60405180910390f35b61021e61022a565b005b610228610761565b005b6802b5e3af16b188000061026760008054906101000a900473ffffffffffffffffffffffffffffffffffffffff1634610a0890919063ffffffff16565b10156102a8576040517f08c379a000000000000000000000000000000000000000000000000000000000815260040161029f90610df7565b60405180910390fd5b34600160003373ffffffffffffffffffffffffffffffffffffffff1673ffffffffffffffffffffffffffffffffffffffff16815260200190815260200160002060008282546102f79190610e4e565b925050819055506002339080600181540180825580915050600190039060005260206000200160009091909190916101000a81548173ffffffffffffffffffffffffffffffffffffffff021916908373ffffffffffffffffffffffffffffffffffffffff160217905550565b60008060009054906101000a900473ffffffffffffffffffffffffffffffffffffffff1673ffffffffffffffffffffffffffffffffffffffff166354fd4d506040518163ffffffff1660e01b815260040160206040518083038186803b1580156103cc57600080fd5b505afa1580156103e0573d6000803e3d6000fd5b505050506040513d601f19601f820116820180604052508101906104049190610c4e565b905090565b60008054906101000a900473ffffffffffffffffffffffffffffffffffffffff1681565b6000600282815481106104435761044261117f565b5b9060005260206000200160009054906101000a900473ffffffffffffffffffffffffffffffffffffffff169050919050565b600360009054906101000a900473ffffffffffffffffffffffffffffffffffffffff1673ffffffffffffffffffffffffffffffffffffffff163373ffffffffffffffffffffffffffffffffffffffff16146104fc576040517f579610db00000000000000000000000000000000000000000000000000000000815260040160405180910390fd5b60005b6002805490508110156105a8576000600282815481106105225761052161117f565b5b9060005260206000200160009054906101000a900473ffffffffffffffffffffffffffffffffffffffff1690506000600160008373ffffffffffffffffffffffffffffffffffffffff1673ffffffffffffffffffffffffffffffffffffffff168152602001908152602001600020819055505080806105a0906110d8565b9150506104ff565b50600067ffffffffffffffff8111156105c4576105c36111ae565b5b6040519080825280602002602001820160405280156105f25781602001602082028036833780820191505090505b5060029080519060200190610608929190610ae4565b5060003373ffffffffffffffffffffffffffffffffffffffff164760405161062f90610d8c565b60006040518083038185875af1925050503d806000811461066c576040519150601f19603f3d011682016040523d82523d6000602084013e610671565b606091505b50509050806106b5576040517f08c379a00000000000000000000000000000000000000000000000000000000081526004016106ac90610dd7565b60405180910390fd5b50565b6802b5e3af16b188000081565b6000600360009054906101000a900473ffffffffffffffffffffffffffffffffffffffff16905090565b6000600160008373ffffffffffffffffffffffffffffffffffffffff1673ffffffffffffffffffffffffffffffffffffffff168152602001908152602001600020549050919050565b60008060009054906101000a900473ffffffffffffffffffffffffffffffffffffffff16905090565b600360009054906101000a900473ffffffffffffffffffffffffffffffffffffffff1673ffffffffffffffffffffffffffffffffffffffff163373ffffffffffffffffffffffffffffffffffffffff16146107e8576040517f579610db00000000000000000000000000000000000000000000000000000000815260040160405180910390fd5b6000600280548060200260200160405190810160405280929190818152602001828054801561086c57602002820191906000526020600020905b8160009054906101000a900473ffffffffffffffffffffffffffffffffffffffff1673ffffffffffffffffffffffffffffffffffffffff1681526020019060010190808311610822575b5050505050905060005b81518110156108f75760008282815181106108945761089361117f565b5b602002602001015190506000600160008373ffffffffffffffffffffffffffffffffffffffff1673ffffffffffffffffffffffffffffffffffffffff168152602001908152602001600020819055505080806108ef906110d8565b915050610876565b50600067ffffffffffffffff811115610913576109126111ae565b5b6040519080825280602002602001820160405280156109415781602001602082028036833780820191505090505b5060029080519060200190610957929190610ae4565b5060003373ffffffffffffffffffffffffffffffffffffffff164760405161097e90610d8c565b60006040518083038185875af1925050503d80600081146109bb576040519150601f19603f3d011682016040523d82523d6000602084013e6109c0565b606091505b5050905080610a04576040517f08c379a00000000000000000000000000000000000000000000000000000000081526004016109fb90610dd7565b60405180910390fd5b5050565b600080610a1483610a44565b90506000670de0b6b3a76400008583610a2d9190610fec565b610a379190610ea4565b9050809250505092915050565b6000808273ffffffffffffffffffffffffffffffffffffffff1663feaf968c6040518163ffffffff1660e01b815260040160a06040518083038186803b158015610a8d57600080fd5b505afa158015610aa1573d6000803e3d6000fd5b505050506040513d601f19601f82011682018060405250810190610ac59190610c7b565b5050509150506402540be40081610adc9190610ed5565b915050919050565b828054828255906000526020600020908101928215610b5d579160200282015b82811115610b5c5782518260006101000a81548173ffffffffffffffffffffffffffffffffffffffff021916908373ffffffffffffffffffffffffffffffffffffffff16021790555091602001919060010190610b04565b5b509050610b6a9190610b6e565b5090565b5b80821115610b87576000816000905550600101610b6f565b5090565b600081359050610b9a81611237565b92915050565b600081519050610baf8161124e565b92915050565b600081359050610bc481611265565b92915050565b600081519050610bd981611265565b92915050565b600081519050610bee8161127c565b92915050565b600060208284031215610c0a57610c096111dd565b5b6000610c1884828501610b8b565b91505092915050565b600060208284031215610c3757610c366111dd565b5b6000610c4584828501610bb5565b91505092915050565b600060208284031215610c6457610c636111dd565b5b6000610c7284828501610bca565b91505092915050565b600080600080600060a08688031215610c9757610c966111dd565b5b6000610ca588828901610bdf565b9550506020610cb688828901610ba0565b9450506040610cc788828901610bca565b9350506060610cd888828901610bca565b9250506080610ce988828901610bdf565b9150509295509295909350565b610cff81611046565b82525050565b610d0e816110a2565b82525050565b6000610d21600b83610e3d565b9150610d2c826111e2565b602082019050919050565b6000610d44601b83610e3d565b9150610d4f8261120b565b602082019050919050565b6000610d67600083610e32565b9150610d7282611234565b600082019050919050565b610d8681611082565b82525050565b6000610d9782610d5a565b9150819050919050565b6000602082019050610db66000830184610cf6565b92915050565b6000602082019050610dd16000830184610d05565b92915050565b60006020820190508181036000830152610df081610d14565b9050919050565b60006020820190508181036000830152610e1081610d37565b9050919050565b6000602082019050610e2c6000830184610d7d565b92915050565b600081905092915050565b600082825260208201905092915050565b6000610e5982611082565b9150610e6483611082565b9250827fffffffffffffffffffffffffffffffffffffffffffffffffffffffffffffffff03821115610e9957610e98611121565b5b828201905092915050565b6000610eaf82611082565b9150610eba83611082565b925082610eca57610ec9611150565b5b828204905092915050565b6000610ee082611058565b9150610eeb83611058565b9250827f7fffffffffffffffffffffffffffffffffffffffffffffffffffffffffffffff0482116000841360008413161615610f2a57610f29611121565b5b817f80000000000000000000000000000000000000000000000000000000000000000583126000841260008413161615610f6757610f66611121565b5b827f80000000000000000000000000000000000000000000000000000000000000000582126000841360008412161615610fa457610fa3611121565b5b827f7fffffffffffffffffffffffffffffffffffffffffffffffffffffffffffffff0582126000841260008412161615610fe157610fe0611121565b5b828202905092915050565b6000610ff782611082565b915061100283611082565b9250817fffffffffffffffffffffffffffffffffffffffffffffffffffffffffffffffff048311821515161561103b5761103a611121565b5b828202905092915050565b600061105182611062565b9050919050565b6000819050919050565b600073ffffffffffffffffffffffffffffffffffffffff82169050919050565b6000819050919050565b600069ffffffffffffffffffff82169050919050565b60006110ad826110b4565b9050919050565b60006110bf826110c6565b9050919050565b60006110d182611062565b9050919050565b60006110e382611082565b91507fffffffffffffffffffffffffffffffffffffffffffffffffffffffffffffffff82141561111657611115611121565b5b600182019050919050565b7f4e487b7100000000000000000000000000000000000000000000000000000000600052601160045260246000fd5b7f4e487b7100000000000000000000000000000000000000000000000000000000600052601260045260246000fd5b7f4e487b7100000000000000000000000000000000000000000000000000000000600052603260045260246000fd5b7f4e487b7100000000000000000000000000000000000000000000000000000000600052604160045260246000fd5b600080fd5b7f43616c6c206661696c6564000000000000000000000000000000000000000000600082015250565b7f596f75206e65656420746f207370656e64206d6f726520455448210000000000600082015250565b50565b61124081611046565b811461124b57600080fd5b50565b61125781611058565b811461126257600080fd5b50565b61126e81611082565b811461127957600080fd5b50565b6112858161108c565b811461129057600080fd5b5056fea26469706673582212209e3ff0f9dc37bc38fc50d48ae337000fbe8028b619911a3a61dea08392fda54d64736f6c63430008070033",
  "devdoc": {
    "kind": "dev",
    "methods": {},
    "version": 1
  },
  "userdoc": {
    "kind": "user",
    "methods": {},
    "version": 1
  },
  "storageLayout": {
    "storage": [
      {
        "astId": 54,
        "contract": "contracts/FundMe.sol:FundMe",
        "label": "s_priceFeed",
        "offset": 0,
        "slot": "0",
        "type": "t_contract(AggregatorV3Interface)45"
      },
      {
        "astId": 61,
        "contract": "contracts/FundMe.sol:FundMe",
        "label": "s_addressToAmountFunded",
        "offset": 0,
        "slot": "1",
        "type": "t_mapping(t_address,t_uint256)"
      },
      {
        "astId": 64,
        "contract": "contracts/FundMe.sol:FundMe",
        "label": "s_funder",
        "offset": 0,
        "slot": "2",
        "type": "t_array(t_address)dyn_storage"
      },
      {
        "astId": 66,
        "contract": "contracts/FundMe.sol:FundMe",
        "label": "i_owner",
        "offset": 0,
        "slot": "3",
        "type": "t_address"
      }
    ],
    "types": {
      "t_address": {
        "encoding": "inplace",
        "label": "address",
        "numberOfBytes": "20"
      },
      "t_array(t_address)dyn_storage": {
        "base": "t_address",
        "encoding": "dynamic_array",
        "label": "address[]",
        "numberOfBytes": "32"
      },
      "t_contract(AggregatorV3Interface)45": {
        "encoding": "inplace",
        "label": "contract AggregatorV3Interface",
        "numberOfBytes": "20"
      },
      "t_mapping(t_address,t_uint256)": {
        "encoding": "mapping",
        "key": "t_address",
        "label": "mapping(address => uint256)",
        "numberOfBytes": "32",
        "value": "t_uint256"
      },
      "t_uint256": {
        "encoding": "inplace",
        "label": "uint256",
        "numberOfBytes": "32"
      }
    }
  }
}