{
  "address": "0x5d1763e5b1e0fbb8bc67beae8fc264070ad47597",
  "abi": [
    {
      "inputs": [
        {
          "internalType": "address",
          "name": "priceFeedAddress",
          "type": "address"
        }
      ],
      "stateMutability": "nonpayable",
      "type": "constructor"
    },
    {
      "inputs": [],
      "name": "NotOwner",
      "type": "error"
    },
    {
      "stateMutability": "payable",
      "type": "fallback"
    },
    {
      "inputs": [],
      "name": "MINIMUM_USD",
      "outputs": [
        {
          "internalType": "uint256",
          "name": "",
          "type": "uint256"
        }
      ],
      "stateMutability": "view",
      "type": "function"
    },
    {
      "inputs": [
        {
          "internalType": "address",
          "name": "",
          "type": "address"
        }
      ],
      "name": "addressToAmountFunded",
      "outputs": [
        {
          "internalType": "uint256",
          "name": "",
          "type": "uint256"
        }
      ],
      "stateMutability": "view",
      "type": "function"
    },
    {
      "inputs": [],
      "name": "fund",
      "outputs": [],
      "stateMutability": "payable",
      "type": "function"
    },
    {
      "inputs": [
        {
          "internalType": "uint256",
          "name": "",
          "type": "uint256"
        }
      ],
      "name": "funders",
      "outputs": [
        {
          "internalType": "address",
          "name": "",
          "type": "address"
        }
      ],
      "stateMutability": "view",
      "type": "function"
    },
    {
      "inputs": [],
      "name": "getVersion",
      "outputs": [
        {
          "internalType": "uint256",
          "name": "",
          "type": "uint256"
        }
      ],
      "stateMutability": "view",
      "type": "function"
    },
    {
      "inputs": [],
      "name": "i_owner",
      "outputs": [
        {
          "internalType": "address",
          "name": "",
          "type": "address"
        }
      ],
      "stateMutability": "view",
      "type": "function"
    },
    {
      "inputs": [],
      "name": "priceFeed",
      "outputs": [
        {
          "internalType": "contract AggregatorV3Interface",
          "name": "",
          "type": "address"
        }
      ],
      "stateMutability": "view",
      "type": "function"
    },
    {
      "inputs": [],
      "name": "withdraw",
      "outputs": [],
      "stateMutability": "nonpayable",
      "type": "function"
    },
    {
      "stateMutability": "payable",
      "type": "receive"
    }
  ],
  "transactionHash": "0x176a5718f7cd77ed4da528f30c0d5cb58762ae58f144277388a94e7852a4485b",
  "args": [
    "0xD4a33860578De61DBAbDc8BFdb98FD742fA7028e"
  ],
  "numDeployments": 1,
  "solcInputHash": "eedf6b6b6ad936f1163a7e31cef5f197",
  "bytecode": "0x60806040523480156200001157600080fd5b50604051620010db380380620010db8339818101604052810190620000379190620000d6565b33600360006101000a81548173ffffffffffffffffffffffffffffffffffffffff021916908373ffffffffffffffffffffffffffffffffffffffff160217905550806000806101000a81548173ffffffffffffffffffffffffffffffffffffffff021916908373ffffffffffffffffffffffffffffffffffffffff160217905550506200015b565b600081519050620000d08162000141565b92915050565b600060208284031215620000ef57620000ee6200013c565b5b6000620000ff84828501620000bf565b91505092915050565b600062000115826200011c565b9050919050565b600073ffffffffffffffffffffffffffffffffffffffff82169050919050565b600080fd5b6200014c8162000108565b81146200015857600080fd5b50565b610f70806200016b6000396000f3fe60806040526004361061007f5760003560e01c8063741bef1a1161004e578063741bef1a14610142578063b60d42881461016d578063dba6335f14610177578063dc0d3dff146101a25761008e565b80630d8e6e2c146100985780633ccfd60b146100c35780633e47d6f3146100da5780636b69a592146101175761008e565b3661008e5761008c6101df565b005b6100966101df565b005b3480156100a457600080fd5b506100ad610318565b6040516100ba9190610abe565b60405180910390f35b3480156100cf57600080fd5b506100d86103be565b005b3480156100e657600080fd5b5061010160048036038101906100fc919061089b565b610601565b60405161010e9190610abe565b60405180910390f35b34801561012357600080fd5b5061012c610619565b6040516101399190610abe565b60405180910390f35b34801561014e57600080fd5b50610157610626565b6040516101649190610a63565b60405180910390f35b6101756101df565b005b34801561018357600080fd5b5061018c61064a565b6040516101999190610a48565b60405180910390f35b3480156101ae57600080fd5b506101c960048036038101906101c491906108c8565b610670565b6040516101d69190610a48565b60405180910390f35b6802b5e3af16b188000061021c60008054906101000a900473ffffffffffffffffffffffffffffffffffffffff16346106af90919063ffffffff16565b101561025d576040517f08c379a000000000000000000000000000000000000000000000000000000000815260040161025490610a9e565b60405180910390fd5b34600160003373ffffffffffffffffffffffffffffffffffffffff1673ffffffffffffffffffffffffffffffffffffffff16815260200190815260200160002060008282546102ac9190610af5565b925050819055506002339080600181540180825580915050600190039060005260206000200160009091909190916101000a81548173ffffffffffffffffffffffffffffffffffffffff021916908373ffffffffffffffffffffffffffffffffffffffff160217905550565b60008060009054906101000a900473ffffffffffffffffffffffffffffffffffffffff1673ffffffffffffffffffffffffffffffffffffffff166354fd4d506040518163ffffffff1660e01b815260040160206040518083038186803b15801561038157600080fd5b505afa158015610395573d6000803e3d6000fd5b505050506040513d601f19601f820116820180604052508101906103b991906108f5565b905090565b600360009054906101000a900473ffffffffffffffffffffffffffffffffffffffff1673ffffffffffffffffffffffffffffffffffffffff163373ffffffffffffffffffffffffffffffffffffffff1614610445576040517f30cd747100000000000000000000000000000000000000000000000000000000815260040160405180910390fd5b60005b6002805490508110156104f15760006002828154811061046b5761046a610e26565b5b9060005260206000200160009054906101000a900473ffffffffffffffffffffffffffffffffffffffff1690506000600160008373ffffffffffffffffffffffffffffffffffffffff1673ffffffffffffffffffffffffffffffffffffffff168152602001908152602001600020819055505080806104e990610d7f565b915050610448565b50600067ffffffffffffffff81111561050d5761050c610e55565b5b60405190808252806020026020018201604052801561053b5781602001602082028036833780820191505090505b506002908051906020019061055192919061078b565b5060003373ffffffffffffffffffffffffffffffffffffffff164760405161057890610a33565b60006040518083038185875af1925050503d80600081146105b5576040519150601f19603f3d011682016040523d82523d6000602084013e6105ba565b606091505b50509050806105fe576040517f08c379a00000000000000000000000000000000000000000000000000000000081526004016105f590610a7e565b60405180910390fd5b50565b60016020528060005260406000206000915090505481565b6802b5e3af16b188000081565b60008054906101000a900473ffffffffffffffffffffffffffffffffffffffff1681565b600360009054906101000a900473ffffffffffffffffffffffffffffffffffffffff1681565b6002818154811061068057600080fd5b906000526020600020016000915054906101000a900473ffffffffffffffffffffffffffffffffffffffff1681565b6000806106bb836106eb565b90506000670de0b6b3a764000085836106d49190610c93565b6106de9190610b4b565b9050809250505092915050565b6000808273ffffffffffffffffffffffffffffffffffffffff1663feaf968c6040518163ffffffff1660e01b815260040160a06040518083038186803b15801561073457600080fd5b505afa158015610748573d6000803e3d6000fd5b505050506040513d601f19601f8201168201806040525081019061076c9190610922565b5050509150506402540be400816107839190610b7c565b915050919050565b828054828255906000526020600020908101928215610804579160200282015b828111156108035782518260006101000a81548173ffffffffffffffffffffffffffffffffffffffff021916908373ffffffffffffffffffffffffffffffffffffffff160217905550916020019190600101906107ab565b5b5090506108119190610815565b5090565b5b8082111561082e576000816000905550600101610816565b5090565b60008135905061084181610ede565b92915050565b60008151905061085681610ef5565b92915050565b60008135905061086b81610f0c565b92915050565b60008151905061088081610f0c565b92915050565b60008151905061089581610f23565b92915050565b6000602082840312156108b1576108b0610e84565b5b60006108bf84828501610832565b91505092915050565b6000602082840312156108de576108dd610e84565b5b60006108ec8482850161085c565b91505092915050565b60006020828403121561090b5761090a610e84565b5b600061091984828501610871565b91505092915050565b600080600080600060a0868803121561093e5761093d610e84565b5b600061094c88828901610886565b955050602061095d88828901610847565b945050604061096e88828901610871565b935050606061097f88828901610871565b925050608061099088828901610886565b9150509295509295909350565b6109a681610ced565b82525050565b6109b581610d49565b82525050565b60006109c8600b83610ae4565b91506109d382610e89565b602082019050919050565b60006109eb601b83610ae4565b91506109f682610eb2565b602082019050919050565b6000610a0e600083610ad9565b9150610a1982610edb565b600082019050919050565b610a2d81610d29565b82525050565b6000610a3e82610a01565b9150819050919050565b6000602082019050610a5d600083018461099d565b92915050565b6000602082019050610a7860008301846109ac565b92915050565b60006020820190508181036000830152610a97816109bb565b9050919050565b60006020820190508181036000830152610ab7816109de565b9050919050565b6000602082019050610ad36000830184610a24565b92915050565b600081905092915050565b600082825260208201905092915050565b6000610b0082610d29565b9150610b0b83610d29565b9250827fffffffffffffffffffffffffffffffffffffffffffffffffffffffffffffffff03821115610b4057610b3f610dc8565b5b828201905092915050565b6000610b5682610d29565b9150610b6183610d29565b925082610b7157610b70610df7565b5b828204905092915050565b6000610b8782610cff565b9150610b9283610cff565b9250827f7fffffffffffffffffffffffffffffffffffffffffffffffffffffffffffffff0482116000841360008413161615610bd157610bd0610dc8565b5b817f80000000000000000000000000000000000000000000000000000000000000000583126000841260008413161615610c0e57610c0d610dc8565b5b827f80000000000000000000000000000000000000000000000000000000000000000582126000841360008412161615610c4b57610c4a610dc8565b5b827f7fffffffffffffffffffffffffffffffffffffffffffffffffffffffffffffff0582126000841260008412161615610c8857610c87610dc8565b5b828202905092915050565b6000610c9e82610d29565b9150610ca983610d29565b9250817fffffffffffffffffffffffffffffffffffffffffffffffffffffffffffffffff0483118215151615610ce257610ce1610dc8565b5b828202905092915050565b6000610cf882610d09565b9050919050565b6000819050919050565b600073ffffffffffffffffffffffffffffffffffffffff82169050919050565b6000819050919050565b600069ffffffffffffffffffff82169050919050565b6000610d5482610d5b565b9050919050565b6000610d6682610d6d565b9050919050565b6000610d7882610d09565b9050919050565b6000610d8a82610d29565b91507fffffffffffffffffffffffffffffffffffffffffffffffffffffffffffffffff821415610dbd57610dbc610dc8565b5b600182019050919050565b7f4e487b7100000000000000000000000000000000000000000000000000000000600052601160045260246000fd5b7f4e487b7100000000000000000000000000000000000000000000000000000000600052601260045260246000fd5b7f4e487b7100000000000000000000000000000000000000000000000000000000600052603260045260246000fd5b7f4e487b7100000000000000000000000000000000000000000000000000000000600052604160045260246000fd5b600080fd5b7f43616c6c206661696c6564000000000000000000000000000000000000000000600082015250565b7f596f75206e65656420746f207370656e64206d6f726520455448210000000000600082015250565b50565b610ee781610ced565b8114610ef257600080fd5b50565b610efe81610cff565b8114610f0957600080fd5b50565b610f1581610d29565b8114610f2057600080fd5b50565b610f2c81610d33565b8114610f3757600080fd5b5056fea264697066735822122035a793a58a2a3991ba16de62d92bdcc719b351b6ec63e59b6cca0106139a854064736f6c63430008070033",
  "devdoc": {
    "kind": "dev",
    "methods": {},
    "version": 1
  },
  "userdoc": {
    "kind": "user",
    "methods": {},
    "version": 1
  },
  "storageLayout": {
    "storage": [
      {
        "astId": 54,
        "contract": "contracts/FundMe.sol:FundMe",
        "label": "priceFeed",
        "offset": 0,
        "slot": "0",
        "type": "t_contract(AggregatorV3Interface)45"
      },
      {
        "astId": 61,
        "contract": "contracts/FundMe.sol:FundMe",
        "label": "addressToAmountFunded",
        "offset": 0,
        "slot": "1",
        "type": "t_mapping(t_address,t_uint256)"
      },
      {
        "astId": 64,
        "contract": "contracts/FundMe.sol:FundMe",
        "label": "funders",
        "offset": 0,
        "slot": "2",
        "type": "t_array(t_address)dyn_storage"
      },
      {
        "astId": 66,
        "contract": "contracts/FundMe.sol:FundMe",
        "label": "i_owner",
        "offset": 0,
        "slot": "3",
        "type": "t_address"
      }
    ],
    "types": {
      "t_address": {
        "encoding": "inplace",
        "label": "address",
        "numberOfBytes": "20"
      },
      "t_array(t_address)dyn_storage": {
        "base": "t_address",
        "encoding": "dynamic_array",
        "label": "address[]",
        "numberOfBytes": "32"
      },
      "t_contract(AggregatorV3Interface)45": {
        "encoding": "inplace",
        "label": "contract AggregatorV3Interface",
        "numberOfBytes": "20"
      },
      "t_mapping(t_address,t_uint256)": {
        "encoding": "mapping",
        "key": "t_address",
        "label": "mapping(address => uint256)",
        "numberOfBytes": "32",
        "value": "t_uint256"
      },
      "t_uint256": {
        "encoding": "inplace",
        "label": "uint256",
        "numberOfBytes": "32"
      }
    }
  }
}